:020000040800F2
:10000000A0020020590100087F01000881010008BA
:100010008301000885010008870100080000000036
:10002000000000000000000000000000890100083E
:100030008B010008000000008D01000885100008F9
:1000400091010008910100080000000091010008E2
:100050009101000891010008910100089101000838
:10006000000000000D0C000891010008910100083B
:100070009101000891010008910100089101000818
:10008000910100080000000000000000910100083C
:100090000000000091010008910100089101000892
:1000A00000000000000000009101000800000000B6
:1000B0009101000800F002F800F03EF80CA030C8F2
:1000C000083824182D18A246671EAB4654465D46D4
:1000D000AC4201D100F030F87E460F3E0FCCB64660
:1000E0000126334200D0FB1AA246AB4633431847E1
:1000F00084100000A4100000103A02D378C878C120
:10010000FAD8520701D330C830C101D504680C6059
:10011000704700000023002400250026103A01D378
:1001200078C1FBD8520700D330C100D50B607047AF
:100130001FB51FBD10B510BD00F065FB1146FFF7E0
:10014000F7FF00F0DBFF00F07DFB03B4FFF7F2FFE9
:1001500003BC00F083FB0000114880F308881148BD
:100160000168090E104A914205D1104810490160FA
:100170001048114901601148804711480047FEE7C7
:10018000FEE7FEE7FEE7FEE7FEE7FEE7FEE7FEE747
:10019000FEE700000B480C490A4A0C4B7047000070
:1001A000A0020020040000001F0000001810024000
:1001B0000100000000000140000000009510000850
:1001C000B5000008A0000020A0020020A000002030
:1001D000002203098B422CD3030A8B4211D3002344
:1001E0009C464EE003460B433CD4002243088B421E
:1001F00031D303098B421CD3030A8B4201D39446AB
:100200003FE0C3098B4201D3CB01C01A524183099D
:100210008B4201D38B01C01A524143098B4201D357
:100220004B01C01A524103098B4201D30B01C01A82
:100230005241C3088B4201D3CB00C01A52418308FC
:100240008B4201D38B00C01A524143088B4201D329
:100250004B00C01A5241411A00D201465241104689
:1002600070475DE0CA0F00D04942031000D34042FE
:10027000534000229C4603098B422DD3030A8B4234
:1002800012D3FC22890112BA030A8B420CD38901D2
:1002900092118B4208D3890192118B4204D38901B8
:1002A0003AD0921100E08909C3098B4201D3CB01F6
:1002B000C01A524183098B4201D38B01C01A5241AB
:1002C00043098B4201D34B01C01A524103098B42AF
:1002D00001D30B01C01A5241C3088B4201D3CB009A
:1002E000C01A524183088B4201D38B00C01A52417D
:1002F000D9D243088B4201D34B00C01A5241411A54
:1003000000D20146634652415B10104601D3404281
:10031000002B00D54942704763465B1000D3404232
:1003200001B50020C046C04602BD70477047704707
:100330000246C80FC00781434B0030B54B405B00FD
:100340009B0D20D01923DB06C91801231B059942F8
:1003500020DB0324A40704251346AB400BD3002B5A
:1003600004D1EB0613409B00E34204D4012464074C
:10037000002312195941FF231B0599420BD2C900D2
:100380000143500F09E0CB0204D5014308030243A7
:1003900005D0054830BDFF21C905084330BD0846DA
:1003A00007210905884330BD0000C07FF0B58B4CA4
:1003B0000F09254689B0BD437BD01D092646AE43B3
:1003C000FAD00E465E402740F60F3E43254071D0DE
:1003D00024012142FBD0FF24AD19A4042D1B039559
:1003E00001252D05DB02DB0AC9022B43C90A29437B
:1003F0001E010901040F130F050121431701880B8A
:10040000820391432D098C46A90B1E438A03954311
:10041000B30B9A0396433F09BA0B9403A743029682
:100420002E467E430497B6464E19D7190C460196C0
:10043000544305977E43371B7646BF1B3601B646AD
:10044000BE0B361900967646BC043719009C01D3C2
:10045000641C00946400002F01D001263443029EE6
:10046000049F754366467E430496760034196E00F9
:1004700034190094029C019E1C196643751BAE46FC
:10048000069465464519059C05956C435943754688
:100490000891691A0191049E01465143A41B0491DD
:1004A000611A009C0791E10605D061090122114300
:1004B00002E072E06EE06109089D00272C0A2D061B
:1004C0006918049D7C412A0A2D066918019D624124
:1004D000AC0DAD026D185441079A910D9202551959
:1004E0006141029A644658435443069B059A5A4315
:1004F000121A131B9A0E9B015B187A41010B00051F
:10050000C3185141220A200644195A419A4200D286
:10051000491C01204002814203D315230226F643E1
:1005200002E014230326F6432020C51AA9401746EB
:10053000AF40DA400A4320460399D84009147318A3
:1005400019055118039A3843D2075140AC4009D0DD
:100550000122944006D30022401C5141002C01D1BD
:10056000400840001E4A934212D30122039892068B
:10057000904207DB0520400709181A480143C012C2
:10058000414004E0032040070818C10FC9070020BC
:1005900009B0F0BD0020F107FAE705180C464C4100
:1005A00011486D42A04115D394181A465A410E487D
:1005B000644290410ED301204A004005824209D393
:1005C0005A00824206D35940C90F084AC907002081
:1005D0001143DDE700200649DAE700000000FF07CD
:1005E000FE070000FFFFFF7F0000E0FF0000F07F3C
:1005F0000000F87F0121C9050123411842001B06B4
:10060000D3185B0E0AD0C1100722D2068918400702
:100610005242D14201D5520089187047090208D5CB
:100620000146002A03D0C10FC907002070471046B9
:100630007047420202D00020024970470721090595
:100640000143F4E70000F87FF0B5FF252D04C6094B
:10065000C209FF2704462E400137CB093E434840DC
:100660002A402B400746002A6BD0002B69D0AA42B3
:1006700067D0AB4265D0002800DA32460125ED058F
:1006800029432C4309022002090AD21A4B0C7F2469
:10069000E31A434C000A7C44E35C7D2424041219D1
:1006A00014145B00A218884201D3521C00E04000E1
:1006B00049420C465C4324115C43DB016415E3189A
:1006C000040A5C43C502200D0C4644436419250A04
:1006D0005D432303EC0C0D46654300030019EB1842
:1006E0004C42A34201D35B18401CD4052018002BB8
:1006F00007D05B00C91804D3401C002901D1400871
:1007000040003F2189048A4209D3002A08DC1106EF
:10071000090F04D0032149074018C00FC007F0BDDE
:1007200001224100120689187F2252069142F6D218
:1007300005214907C84201D59010F0BDFF20C00532
:10074000F0BD002F00DA32461648AA4207D2AB426B
:1007500005D21902090E17D0F80FC007F0BDFF250A
:1007600063002D06AB42F9D84900A942F6D8AB4246
:1007700001D1A942F2D0A94201D1002101E06100DA
:100780004908D0050843F0BD1102090EFBD0FF2037
:100790000243D005F0BD0A460146104654E700006A
:1007A0009A0A00000000C07F1F22030C02D10F2212
:1007B00000041CD0030E01D10002083A030F01D13E
:1007C0000001121F830F01D18000921E002801DB5F
:1007D0004000521ED20551180212511819229040A1
:1007E00004D3491C002801D1490849000846704734
:1007F000C10FC90700D04042012292071143D3E73D
:1008000001218907D0E7754600F024F8AE460500BF
:1008100069465346C008C000854618B020B5FFF7AA
:10082000B9FC60BC00274908B6460026C0C5C0C553
:10083000C0C5C0C5C0C5C0C5C0C5C0C5403D4900D4
:100840008D46704710B50446C046C0462046FFF7A7
:100850007CFC10BD00487047400000200149182072
:10086000ABBEFEE7260002007047000010B504464C
:10087000002C08D101210920C00600F0A1FA0020B7
:1008800000F080F839E0042C05D110210920C006C1
:1008900000F096FA31E0052C05D120210920C00690
:1008A00000F08EFA29E0062C05D140210920C0066F
:1008B00000F086FA21E0082C04D10121114800F053
:1008C0007FFA1AE0092C04D102210E4800F078FAD0
:1008D00013E00A2C04D108210A4800F071FA0CE058
:1008E0000B2C04D11021074800F06AFA05E00C2C0B
:1008F00003D18021034800F063FA204600F042F85B
:1009000010BD00000004004810B500201849088000
:100910000EE01748008840001649085A1649096831
:1009200040181549086012480088401C104908808A
:100930000F4800881428ECDB00200D4908800120B6
:100940000E49087014210C480068FFF741FC1E2175
:1009500048430B49098846225143441864212046E4
:10096000FFF736FC0649088000200349086010BDE7
:1009700010000020180000201400002006000020B5
:100980000400002010B586B00446684600F0F6F872
:100990000121480200F020FB00200090702001900F
:1009A00001208002029000200590049069460E48C4
:1009B00000F034F80723002221460B4800F048F8E5
:1009C0000E2C02D1012000F0E1F80F2C02D1012001
:1009D00000F0FCF80121044800F014F8012102485D
:1009E00000F004F806B010BD00240140002904D036
:1009F000426801231A43426003E0426852085200F1
:100A000042607047002904D0826808231A4382603C
:100A100003E0826808239A438260704710B502465B
:100A20000020506870240346A34318460C684B68A6
:100A30002343184350609068044B18400C694B697D
:100A400023438C6823431843906010BD80F1FFFF5F
:100A500070B51C46002545680726B6022B46B343F1
:100A60001D46A3021D434560082941D007DC0B0049
:100A700000F036FB08161B20252A2F34396D0C296F
:100A80004ED006DC092939D00A293DD00B295ED188
:100A900040E00E294AD00F294ED0FF2957D151E00E
:100AA000C36801263343C36056E0C368022633435C
:100AB000C36051E0C36804263343C3604CE0C3689D
:100AC00008263343C36047E0C36810263343C3603E
:100AD00042E0C36820263343C3603DE0C36840263C
:100AE0003343C36038E0C36880263343C36033E0D8
:100AF000C368FF2601363343C3602DE0C368012677
:100B000076023343C36027E0C3680126B60233434D
:100B1000C36021E0C3680126F6023343C3601BE0D3
:100B2000C368012636033343C36015E0C36801265A
:100B3000B6033343C3600FE0C3680126F6033343B3
:100B4000C36009E0C368054E3343C36004E0C36873
:100B50001B0C1B04C36000BF00BF70BDFFDF0000A3
:100B6000002905D08268FF2301331A43826004E024
:100B70008268FF2301339A4382607047702141608D
:100B800000218160016141610160704700280DD042
:100B90000D494968042211430B4A51601146C96846
:100BA000012292031143084AD1600CE006494968CA
:100BB00004229143044A51601146C96801229203FC
:100BC0009143014AD16070470024014000280DD0B4
:100BD0000D494968082211430B4A51601146C96802
:100BE0000122D2031143084AD1600CE0064949684A
:100BF00008229143044A51601146C9680122D20378
:100C00009143014AD16070470024014010B5002192
:100C10000448FFF7A5FF022000F044F8FFF774FE38
:100C200010BD00000024014000B58DB00121084630
:100C300000F0C2F9184800F047F818480290184828
:100C4000039000200490142005900020069080203E
:100C50000790400008908000099020200A90000230
:100C60000B9000200C9002A90B4800F089F801219C
:100C7000094800F01DF801220221074800F076F82B
:100C8000092168460171002141710121817101A88A
:100C900000F05AF90DB000BD0800024000240140E8
:100CA0001800002001494860704700000000024021
:100CB000002904D0026801231A43026003E002689D
:100CC00052085200026070470168490849000160FB
:100CD0000021016041608160C160224A811A904216
:100CE0001ED006DC20494118002907D0142935D12F
:100CF0000DE014291ED0282930D125E019493039BA
:100D000049680F221143174A303A516027E01549CC
:100D100030394968F0221143124A303A51601EE0DE
:100D20001049303949680F22120211430D4A303AF6
:100D3000516014E00B49303949680F221203114306
:100D4000084A303A51600AE00649303949680F22B2
:100D500012041143034A303A516000E000BF00BF63
:100D60007047000030000240F8FFFDBF002A03D0AA
:100D700003680B43036002E003688B430360704722
:100D800010B5002202680D4B1A400C6A8B68234391
:100D90000C6923434C6923438C692343CC69234367
:100DA0004C6A23438C6A23431A430260CB68436036
:100DB0000B6883604B68C36010BD00000F80FFFFAD
:100DC00038B504460D460920C006844203D10121EE
:100DD000480400F0F1F81048844203D101210002D8
:100DE00000F0EAF80D48844203D10121000200F02E
:100DF000E3F80B48844203D10121080500F0DCF838
:100E000068460580032181700021C1706946204633
:100E100000F008F838BD0000000400480008004851
:100E2000000C0048FCB50246002500260196002073
:100E3000002300240096CE7835072D0FCE7810279A
:100E40003E40002E01D08E7835430E78002E27D0FC
:100E50001468002021E00126864033460E881E409B
:100E60000196019E9E4217D183000F269E40009658
:100E70002746009EB7433C462E469E403443CE78DC
:100E8000282E03D101268640566105E0CE78482EF3
:100E900002D1012686401661401C0828DBD314606D
:100EA0000E88FF2E2CDD5468002026E0064608360A
:100EB0000127B7403B460E881E400196019E9E4288
:100EC0001AD183000F269E4000962746009EB74306
:100ED0003C462E469E403443CE78282E04D106460A
:100EE00008360127B7405761CE78482E04D1064610
:100EF00008360127B7401761401C0828D6D3546034
:100F0000FCBD0000FEB50B480088FFF779FC0A49DC
:100F10000090FFF799FB0190FFF76CFB0446074A2E
:100F2000074BFFF743FA0646FFF702FA0549086048
:100F3000FEBD00000400002000F07F456666666686
:100F400066660A400000002000218278002A27D02F
:100F5000184A03231B02D21803789B109B00D15818
:100F600002789207D30EFF229A400B46934319460C
:100F700042789207120E03789B07DB0E9A401143CA
:100F80000C4A03231B02D21803789B109B00D150FC
:100F90000278D306DB0E01229A40064B1A6007E066
:100FA0000278D306DB0E01229A40024B80331A608E
:100FB0007047000000E100E0002905D0054A5269B1
:100FC0000243044B5A6104E0024A52698243014BD6
:100FD0005A61704700100240002905D0054A926905
:100FE0000243044B9A6104E0024A92698243014B36
:100FF0009A6170470010024010B500F001F810BD72
:1010000000201E490968012211431C4A116000BFDB
:101010001A490968022211400029F9D017490968C4
:10102000D2049143154A1160114609680422914384
:10103000124A1160111551601121114A11600F49B6
:1010400049680E4A51601146496851601146496825
:101050005160114649688908890051601146496804
:1010600002221143054A516005E004494968890597
:10107000080E8007800F0228F7D170470010024049
:101080000020024002480068401C01490860704787
:101090000C00002010B510480068012108430E49DB
:1010A0000860084640680D4908400B4948600846FA
:1010B0000068092109048843074908600846006858
:1010C000012189048843044908609F200004886046
:1010D000FFF792FF10BD0000001002400000FFF07B
:1010E00030B47446641E2578641CAB4204D3635D3F
:1010F0005B00E31830BC18471D46F8E7FFF794FD86
:101100000020FFF7B3FB01210848FFF729FD0CE0A1
:1011100007480078002808D0002005490870FFF72C
:10112000F1FE01210148FFF71BFDF1E7002401401A
:10113000060000208182838485868788898B8C8D38
:101140008E8F919293959697999A9C9D9FA0A2A31A
:10115000A5A7A8AAACAEB0B2B3B5B7B9BCBEC0C261
:10116000C5C7C9CCCED1D4D7D9DCDFE2E6E9ECF0F3
:10117000F3F7FAFE941100080000002018000000A8
:10118000F8000008AC1100081800002088020000D8
:101190001401000800000000000000000000000032
:0C11A00000000000000000000000000043
:04000005080000B53A
:00000001FF
